{
    "_format": "hh-sol-artifact-1",
    "contractName": "Minter",
    "sourceName": "contracts/Minter.sol",
    "abi": [
        {
            "inputs": [],
            "stateMutability": "nonpayable",
            "type": "constructor"
        },
        {
            "anonymous": false,
            "inputs": [
                {
                    "indexed": true,
                    "internalType": "address",
                    "name": "owner",
                    "type": "address"
                },
                {
                    "indexed": true,
                    "internalType": "address",
                    "name": "approved",
                    "type": "address"
                },
                {
                    "indexed": true,
                    "internalType": "uint256",
                    "name": "tokenId",
                    "type": "uint256"
                }
            ],
            "name": "Approval",
            "type": "event"
        },
        {
            "anonymous": false,
            "inputs": [
                {
                    "indexed": true,
                    "internalType": "address",
                    "name": "owner",
                    "type": "address"
                },
                {
                    "indexed": true,
                    "internalType": "address",
                    "name": "operator",
                    "type": "address"
                },
                {
                    "indexed": false,
                    "internalType": "bool",
                    "name": "approved",
                    "type": "bool"
                }
            ],
            "name": "ApprovalForAll",
            "type": "event"
        },
        {
            "anonymous": false,
            "inputs": [
                {
                    "indexed": true,
                    "internalType": "address",
                    "name": "previousOwner",
                    "type": "address"
                },
                {
                    "indexed": true,
                    "internalType": "address",
                    "name": "newOwner",
                    "type": "address"
                }
            ],
            "name": "OwnershipTransferred",
            "type": "event"
        },
        {
            "anonymous": false,
            "inputs": [
                {
                    "indexed": false,
                    "internalType": "address",
                    "name": "account",
                    "type": "address"
                },
                {
                    "indexed": false,
                    "internalType": "uint256",
                    "name": "shares",
                    "type": "uint256"
                }
            ],
            "name": "PayeeAdded",
            "type": "event"
        },
        {
            "anonymous": false,
            "inputs": [
                {
                    "indexed": false,
                    "internalType": "address",
                    "name": "from",
                    "type": "address"
                },
                {
                    "indexed": false,
                    "internalType": "uint256",
                    "name": "amount",
                    "type": "uint256"
                }
            ],
            "name": "PaymentReceived",
            "type": "event"
        },
        {
            "anonymous": false,
            "inputs": [
                {
                    "indexed": false,
                    "internalType": "address",
                    "name": "to",
                    "type": "address"
                },
                {
                    "indexed": false,
                    "internalType": "uint256",
                    "name": "amount",
                    "type": "uint256"
                }
            ],
            "name": "PaymentReleased",
            "type": "event"
        },
        {
            "anonymous": false,
            "inputs": [
                {
                    "indexed": true,
                    "internalType": "address",
                    "name": "from",
                    "type": "address"
                },
                {
                    "indexed": true,
                    "internalType": "address",
                    "name": "to",
                    "type": "address"
                },
                {
                    "indexed": true,
                    "internalType": "uint256",
                    "name": "tokenId",
                    "type": "uint256"
                }
            ],
            "name": "Transfer",
            "type": "event"
        },
        {
            "inputs": [],
            "name": "MAX_TOKENS",
            "outputs": [
                {
                    "internalType": "uint256",
                    "name": "",
                    "type": "uint256"
                }
            ],
            "stateMutability": "view",
            "type": "function"
        },
        {
            "inputs": [
                {
                    "internalType": "uint256",
                    "name": "",
                    "type": "uint256"
                }
            ],
            "name": "admins",
            "outputs": [
                {
                    "internalType": "address",
                    "name": "",
                    "type": "address"
                }
            ],
            "stateMutability": "view",
            "type": "function"
        },
        {
            "inputs": [
                {
                    "internalType": "address",
                    "name": "to",
                    "type": "address"
                },
                {
                    "internalType": "uint256",
                    "name": "tokenId",
                    "type": "uint256"
                }
            ],
            "name": "approve",
            "outputs": [],
            "stateMutability": "nonpayable",
            "type": "function"
        },
        {
            "inputs": [
                {
                    "internalType": "address",
                    "name": "owner",
                    "type": "address"
                }
            ],
            "name": "balanceOf",
            "outputs": [
                {
                    "internalType": "uint256",
                    "name": "",
                    "type": "uint256"
                }
            ],
            "stateMutability": "view",
            "type": "function"
        },
        {
            "inputs": [],
            "name": "baseURI",
            "outputs": [
                {
                    "internalType": "string",
                    "name": "",
                    "type": "string"
                }
            ],
            "stateMutability": "view",
            "type": "function"
        },
        {
            "inputs": [
                {
                    "internalType": "uint256",
                    "name": "tokenId",
                    "type": "uint256"
                }
            ],
            "name": "getApproved",
            "outputs": [
                {
                    "internalType": "address",
                    "name": "",
                    "type": "address"
                }
            ],
            "stateMutability": "view",
            "type": "function"
        },
        {
            "inputs": [],
            "name": "getBalance",
            "outputs": [
                {
                    "internalType": "uint256",
                    "name": "",
                    "type": "uint256"
                }
            ],
            "stateMutability": "view",
            "type": "function"
        },
        {
            "inputs": [
                {
                    "internalType": "address",
                    "name": "recipient",
                    "type": "address"
                }
            ],
            "name": "gift",
            "outputs": [],
            "stateMutability": "nonpayable",
            "type": "function"
        },
        {
            "inputs": [
                {
                    "internalType": "address",
                    "name": "owner",
                    "type": "address"
                },
                {
                    "internalType": "address",
                    "name": "operator",
                    "type": "address"
                }
            ],
            "name": "isApprovedForAll",
            "outputs": [
                {
                    "internalType": "bool",
                    "name": "",
                    "type": "bool"
                }
            ],
            "stateMutability": "view",
            "type": "function"
        },
        {
            "inputs": [],
            "name": "maxMint",
            "outputs": [
                {
                    "internalType": "uint256",
                    "name": "",
                    "type": "uint256"
                }
            ],
            "stateMutability": "view",
            "type": "function"
        },
        {
            "inputs": [
                {
                    "internalType": "uint256",
                    "name": "mintAmount",
                    "type": "uint256"
                }
            ],
            "name": "mint",
            "outputs": [],
            "stateMutability": "payable",
            "type": "function"
        },
        {
            "inputs": [],
            "name": "mintPrice",
            "outputs": [
                {
                    "internalType": "uint256",
                    "name": "",
                    "type": "uint256"
                }
            ],
            "stateMutability": "view",
            "type": "function"
        },
        {
            "inputs": [],
            "name": "name",
            "outputs": [
                {
                    "internalType": "string",
                    "name": "",
                    "type": "string"
                }
            ],
            "stateMutability": "view",
            "type": "function"
        },
        {
            "inputs": [],
            "name": "owner",
            "outputs": [
                {
                    "internalType": "address",
                    "name": "",
                    "type": "address"
                }
            ],
            "stateMutability": "view",
            "type": "function"
        },
        {
            "inputs": [
                {
                    "internalType": "uint256",
                    "name": "tokenId",
                    "type": "uint256"
                }
            ],
            "name": "ownerOf",
            "outputs": [
                {
                    "internalType": "address",
                    "name": "",
                    "type": "address"
                }
            ],
            "stateMutability": "view",
            "type": "function"
        },
        {
            "inputs": [
                {
                    "internalType": "uint256",
                    "name": "index",
                    "type": "uint256"
                }
            ],
            "name": "payee",
            "outputs": [
                {
                    "internalType": "address",
                    "name": "",
                    "type": "address"
                }
            ],
            "stateMutability": "view",
            "type": "function"
        },
        {
            "inputs": [
                {
                    "internalType": "address payable",
                    "name": "account",
                    "type": "address"
                }
            ],
            "name": "release",
            "outputs": [],
            "stateMutability": "nonpayable",
            "type": "function"
        },
        {
            "inputs": [
                {
                    "internalType": "address",
                    "name": "account",
                    "type": "address"
                }
            ],
            "name": "released",
            "outputs": [
                {
                    "internalType": "uint256",
                    "name": "",
                    "type": "uint256"
                }
            ],
            "stateMutability": "view",
            "type": "function"
        },
        {
            "inputs": [],
            "name": "renounceOwnership",
            "outputs": [],
            "stateMutability": "nonpayable",
            "type": "function"
        },
        {
            "inputs": [
                {
                    "internalType": "uint256",
                    "name": "",
                    "type": "uint256"
                },
                {
                    "internalType": "uint256",
                    "name": "value",
                    "type": "uint256"
                }
            ],
            "name": "royaltyInfo",
            "outputs": [
                {
                    "internalType": "address",
                    "name": "receiver",
                    "type": "address"
                },
                {
                    "internalType": "uint256",
                    "name": "royaltyAmount",
                    "type": "uint256"
                }
            ],
            "stateMutability": "view",
            "type": "function"
        },
        {
            "inputs": [
                {
                    "internalType": "address",
                    "name": "from",
                    "type": "address"
                },
                {
                    "internalType": "address",
                    "name": "to",
                    "type": "address"
                },
                {
                    "internalType": "uint256",
                    "name": "tokenId",
                    "type": "uint256"
                }
            ],
            "name": "safeTransferFrom",
            "outputs": [],
            "stateMutability": "nonpayable",
            "type": "function"
        },
        {
            "inputs": [
                {
                    "internalType": "address",
                    "name": "from",
                    "type": "address"
                },
                {
                    "internalType": "address",
                    "name": "to",
                    "type": "address"
                },
                {
                    "internalType": "uint256",
                    "name": "tokenId",
                    "type": "uint256"
                },
                {
                    "internalType": "bytes",
                    "name": "_data",
                    "type": "bytes"
                }
            ],
            "name": "safeTransferFrom",
            "outputs": [],
            "stateMutability": "nonpayable",
            "type": "function"
        },
        {
            "inputs": [
                {
                    "internalType": "address[]",
                    "name": "_addresses",
                    "type": "address[]"
                }
            ],
            "name": "setAdmin",
            "outputs": [],
            "stateMutability": "nonpayable",
            "type": "function"
        },
        {
            "inputs": [
                {
                    "internalType": "address",
                    "name": "operator",
                    "type": "address"
                },
                {
                    "internalType": "bool",
                    "name": "approved",
                    "type": "bool"
                }
            ],
            "name": "setApprovalForAll",
            "outputs": [],
            "stateMutability": "nonpayable",
            "type": "function"
        },
        {
            "inputs": [
                {
                    "internalType": "string",
                    "name": "_newBaseURI",
                    "type": "string"
                }
            ],
            "name": "setBaseURI",
            "outputs": [],
            "stateMutability": "nonpayable",
            "type": "function"
        },
        {
            "inputs": [
                {
                    "internalType": "address",
                    "name": "recipient",
                    "type": "address"
                },
                {
                    "internalType": "uint256",
                    "name": "value",
                    "type": "uint256"
                }
            ],
            "name": "setRoyalties",
            "outputs": [],
            "stateMutability": "nonpayable",
            "type": "function"
        },
        {
            "inputs": [
                {
                    "internalType": "uint256",
                    "name": "",
                    "type": "uint256"
                }
            ],
            "name": "shares",
            "outputs": [
                {
                    "internalType": "uint256",
                    "name": "",
                    "type": "uint256"
                }
            ],
            "stateMutability": "view",
            "type": "function"
        },
        {
            "inputs": [
                {
                    "internalType": "address",
                    "name": "account",
                    "type": "address"
                }
            ],
            "name": "shares",
            "outputs": [
                {
                    "internalType": "uint256",
                    "name": "",
                    "type": "uint256"
                }
            ],
            "stateMutability": "view",
            "type": "function"
        },
        {
            "inputs": [
                {
                    "internalType": "bytes4",
                    "name": "interfaceId",
                    "type": "bytes4"
                }
            ],
            "name": "supportsInterface",
            "outputs": [
                {
                    "internalType": "bool",
                    "name": "",
                    "type": "bool"
                }
            ],
            "stateMutability": "view",
            "type": "function"
        },
        {
            "inputs": [],
            "name": "symbol",
            "outputs": [
                {
                    "internalType": "string",
                    "name": "",
                    "type": "string"
                }
            ],
            "stateMutability": "view",
            "type": "function"
        },
        {
            "inputs": [
                {
                    "internalType": "uint256",
                    "name": "index",
                    "type": "uint256"
                }
            ],
            "name": "tokenByIndex",
            "outputs": [
                {
                    "internalType": "uint256",
                    "name": "",
                    "type": "uint256"
                }
            ],
            "stateMutability": "view",
            "type": "function"
        },
        {
            "inputs": [
                {
                    "internalType": "address",
                    "name": "owner",
                    "type": "address"
                },
                {
                    "internalType": "uint256",
                    "name": "index",
                    "type": "uint256"
                }
            ],
            "name": "tokenOfOwnerByIndex",
            "outputs": [
                {
                    "internalType": "uint256",
                    "name": "",
                    "type": "uint256"
                }
            ],
            "stateMutability": "view",
            "type": "function"
        },
        {
            "inputs": [
                {
                    "internalType": "uint256",
                    "name": "tokenId",
                    "type": "uint256"
                }
            ],
            "name": "tokenURI",
            "outputs": [
                {
                    "internalType": "string",
                    "name": "",
                    "type": "string"
                }
            ],
            "stateMutability": "view",
            "type": "function"
        },
        {
            "inputs": [],
            "name": "totalReleased",
            "outputs": [
                {
                    "internalType": "uint256",
                    "name": "",
                    "type": "uint256"
                }
            ],
            "stateMutability": "view",
            "type": "function"
        },
        {
            "inputs": [],
            "name": "totalShares",
            "outputs": [
                {
                    "internalType": "uint256",
                    "name": "",
                    "type": "uint256"
                }
            ],
            "stateMutability": "view",
            "type": "function"
        },
        {
            "inputs": [],
            "name": "totalSupply",
            "outputs": [
                {
                    "internalType": "uint256",
                    "name": "",
                    "type": "uint256"
                }
            ],
            "stateMutability": "view",
            "type": "function"
        },
        {
            "inputs": [
                {
                    "internalType": "address",
                    "name": "from",
                    "type": "address"
                },
                {
                    "internalType": "address",
                    "name": "to",
                    "type": "address"
                },
                {
                    "internalType": "uint256",
                    "name": "tokenId",
                    "type": "uint256"
                }
            ],
            "name": "transferFrom",
            "outputs": [],
            "stateMutability": "nonpayable",
            "type": "function"
        },
        {
            "inputs": [
                {
                    "internalType": "address",
                    "name": "newOwner",
                    "type": "address"
                }
            ],
            "name": "transferOwnership",
            "outputs": [],
            "stateMutability": "nonpayable",
            "type": "function"
        },
        {
            "inputs": [],
            "name": "withdraw",
            "outputs": [],
            "stateMutability": "payable",
            "type": "function"
        },
        {
            "stateMutability": "payable",
            "type": "receive"
        }
    ],
    "bytecode": "0x60806040526032601155604051806040016040528073a963505b2bb3ddc37a5e124165cc57d89a6242ea73ffffffffffffffffffffffffffffffffffffffff1673ffffffffffffffffffffffffffffffffffffffff16815260200173389afe66ccb70315346593b8b6953aadb179479d73ffffffffffffffffffffffffffffffffffffffff1673ffffffffffffffffffffffffffffffffffffffff168152506013906002620000b0929190620007e0565b506040518060400160405280603260ff168152602001603260ff168152506014906002620000e09291906200086f565b50348015620000ee57600080fd5b5060138054806020026020016040519081016040528092919081815260200182805480156200017357602002820191906000526020600020905b8160009054906101000a900473ffffffffffffffffffffffffffffffffffffffff1673ffffffffffffffffffffffffffffffffffffffff168152602001906001019080831162000128575b50505050506014805480602002602001604051908101604052809291908181526020018280548015620001c657602002820191906000526020600020905b815481526020019060010190808311620001b1575b50505050506040518060400160405280600a81526020017f53656c66694d6f6e6b65000000000000000000000000000000000000000000008152506040518060400160405280600481526020017f534d4b450000000000000000000000000000000000000000000000000000000081525081600090805190602001906200024f929190620008c6565b50806001908051906020019062000268929190620008c6565b5050506200028b6200027f6200040360201b60201c565b6200040b60201b60201c565b8051825114620002d2576040517f08c379a0000000000000000000000000000000000000000000000000000000008152600401620002c99062000af3565b60405180910390fd5b600082511162000319576040517f08c379a0000000000000000000000000000000000000000000000000000000008152600401620003109062000b37565b60405180910390fd5b60005b8251811015620003d057620003ba83828151811062000364577f4e487b7100000000000000000000000000000000000000000000000000000000600052603260045260246000fd5b6020026020010151838381518110620003a6577f4e487b7100000000000000000000000000000000000000000000000000000000600052603260045260246000fd5b6020026020010151620004d160201b60201c565b8080620003c79062000c5d565b9150506200031c565b505050620003fd6040518060600160405280603c815260200162005e9e603c91396200070b60201b60201c565b62000e71565b600033905090565b6000600a60009054906101000a900473ffffffffffffffffffffffffffffffffffffffff16905081600a60006101000a81548173ffffffffffffffffffffffffffffffffffffffff021916908373ffffffffffffffffffffffffffffffffffffffff1602179055508173ffffffffffffffffffffffffffffffffffffffff168173ffffffffffffffffffffffffffffffffffffffff167f8be0079c531659141344cd1fd0a4f28419497f9722a3daafe3b4186f6b6457e060405160405180910390a35050565b600073ffffffffffffffffffffffffffffffffffffffff168273ffffffffffffffffffffffffffffffffffffffff16141562000544576040517f08c379a00000000000000000000000000000000000000000000000000000000081526004016200053b9062000aaf565b60405180910390fd5b600081116200058a576040517f08c379a0000000000000000000000000000000000000000000000000000000008152600401620005819062000b59565b60405180910390fd5b6000600d60008473ffffffffffffffffffffffffffffffffffffffff1673ffffffffffffffffffffffffffffffffffffffff16815260200190815260200160002054146200060f576040517f08c379a0000000000000000000000000000000000000000000000000000000008152600401620006069062000b15565b60405180910390fd5b600f829080600181540180825580915050600190039060005260206000200160009091909190916101000a81548173ffffffffffffffffffffffffffffffffffffffff021916908373ffffffffffffffffffffffffffffffffffffffff16021790555080600d60008473ffffffffffffffffffffffffffffffffffffffff1673ffffffffffffffffffffffffffffffffffffffff1681526020019081526020016000208190555080600b54620006c6919062000b8c565b600b819055507f40c340f65e17194d14ddddb073d3c9f888e3cb52b5aae0c6c7706b4fbc905fac8282604051620006ff92919062000a82565b60405180910390a15050565b6200071b6200040360201b60201c565b73ffffffffffffffffffffffffffffffffffffffff1662000741620007b660201b60201c565b73ffffffffffffffffffffffffffffffffffffffff16146200079a576040517f08c379a0000000000000000000000000000000000000000000000000000000008152600401620007919062000ad1565b60405180910390fd5b8060129080519060200190620007b2929190620008c6565b5050565b6000600a60009054906101000a900473ffffffffffffffffffffffffffffffffffffffff16905090565b8280548282559060005260206000209081019282156200085c579160200282015b828111156200085b5782518260006101000a81548173ffffffffffffffffffffffffffffffffffffffff021916908373ffffffffffffffffffffffffffffffffffffffff1602179055509160200191906001019062000801565b5b5090506200086b919062000957565b5090565b828054828255906000526020600020908101928215620008b3579160200282015b82811115620008b2578251829060ff1690559160200191906001019062000890565b5b509050620008c2919062000957565b5090565b828054620008d49062000c27565b90600052602060002090601f016020900481019282620008f8576000855562000944565b82601f106200091357805160ff191683800117855562000944565b8280016001018555821562000944579182015b828111156200094357825182559160200191906001019062000926565b5b50905062000953919062000957565b5090565b5b808211156200097257600081600090555060010162000958565b5090565b620009818162000be9565b82525050565b600062000996602c8362000b7b565b9150620009a38262000d09565b604082019050919050565b6000620009bd60208362000b7b565b9150620009ca8262000d58565b602082019050919050565b6000620009e460328362000b7b565b9150620009f18262000d81565b604082019050919050565b600062000a0b602b8362000b7b565b915062000a188262000dd0565b604082019050919050565b600062000a32601a8362000b7b565b915062000a3f8262000e1f565b602082019050919050565b600062000a59601d8362000b7b565b915062000a668262000e48565b602082019050919050565b62000a7c8162000c1d565b82525050565b600060408201905062000a99600083018562000976565b62000aa8602083018462000a71565b9392505050565b6000602082019050818103600083015262000aca8162000987565b9050919050565b6000602082019050818103600083015262000aec81620009ae565b9050919050565b6000602082019050818103600083015262000b0e81620009d5565b9050919050565b6000602082019050818103600083015262000b3081620009fc565b9050919050565b6000602082019050818103600083015262000b528162000a23565b9050919050565b6000602082019050818103600083015262000b748162000a4a565b9050919050565b600082825260208201905092915050565b600062000b998262000c1d565b915062000ba68362000c1d565b9250827fffffffffffffffffffffffffffffffffffffffffffffffffffffffffffffffff0382111562000bde5762000bdd62000cab565b5b828201905092915050565b600062000bf68262000bfd565b9050919050565b600073ffffffffffffffffffffffffffffffffffffffff82169050919050565b6000819050919050565b6000600282049050600182168062000c4057607f821691505b6020821081141562000c575762000c5662000cda565b5b50919050565b600062000c6a8262000c1d565b91507fffffffffffffffffffffffffffffffffffffffffffffffffffffffffffffffff82141562000ca05762000c9f62000cab565b5b600182019050919050565b7f4e487b7100000000000000000000000000000000000000000000000000000000600052601160045260246000fd5b7f4e487b7100000000000000000000000000000000000000000000000000000000600052602260045260246000fd5b7f5061796d656e7453706c69747465723a206163636f756e74206973207468652060008201527f7a65726f20616464726573730000000000000000000000000000000000000000602082015250565b7f4f776e61626c653a2063616c6c6572206973206e6f7420746865206f776e6572600082015250565b7f5061796d656e7453706c69747465723a2070617965657320616e64207368617260008201527f6573206c656e677468206d69736d617463680000000000000000000000000000602082015250565b7f5061796d656e7453706c69747465723a206163636f756e7420616c726561647960008201527f2068617320736861726573000000000000000000000000000000000000000000602082015250565b7f5061796d656e7453706c69747465723a206e6f20706179656573000000000000600082015250565b7f5061796d656e7453706c69747465723a20736861726573206172652030000000600082015250565b61501d8062000e816000396000f3fe6080604052600436106102345760003560e01c80636c0360eb1161012e578063a22cb465116100ab578063ce7c2ac21161006f578063ce7c2ac2146108b7578063e33b7de3146108f4578063e985e9c51461091f578063f2fde38b1461095c578063f47c84c5146109855761027b565b8063a22cb465146107d6578063b88d4fde146107ff578063c339d0bf14610828578063c87b56dd14610851578063cbfc4bce1461088e5761027b565b80638c7ea24b116100f25780638c7ea24b146106fe5780638da5cb5b1461072757806395d89b41146107525780639852595c1461077d578063a0712d68146107ba5761027b565b80636c0360eb1461061757806370a0823114610642578063715018a61461067f5780637501f741146106965780638b83209b146106c15761027b565b80632a55205a116101bc5780634f6ccce7116101805780634f6ccce71461050c57806355f804b31461054957806357a858fc146105725780636352211e146105af5780636817c76c146105ec5761027b565b80632a55205a146104335780632f745c59146104715780633a98ef39146104ae5780633ccfd60b146104d957806342842e0e146104e35761027b565b806312065fe01161020357806312065fe01461034e57806314bfd6d01461037957806318160ddd146103b657806319165587146103e157806323b872dd1461040a5761027b565b806301ffc9a71461028057806306fdde03146102bd578063081812fc146102e8578063095ea7b3146103255761027b565b3661027b577f6ef95f06320e7a25a04a175ca677b7052bdd97131872c2192525a629f51be7706102626109b0565b34604051610271929190613f6a565b60405180910390a1005b600080fd5b34801561028c57600080fd5b506102a760048036038101906102a291906138d3565b6109b8565b6040516102b49190613f93565b60405180910390f35b3480156102c957600080fd5b506102d26109ca565b6040516102df9190613fae565b60405180910390f35b3480156102f457600080fd5b5061030f600480360381019061030a9190613966565b610a5c565b60405161031c9190613eda565b60405180910390f35b34801561033157600080fd5b5061034c60048036038101906103479190613852565b610ae1565b005b34801561035a57600080fd5b50610363610bf9565b6040516103709190614350565b60405180910390f35b34801561038557600080fd5b506103a0600480360381019061039b9190613966565b610c01565b6040516103ad9190613eda565b60405180910390f35b3480156103c257600080fd5b506103cb610c40565b6040516103d89190614350565b60405180910390f35b3480156103ed57600080fd5b50610408600480360381019061040391906136e7565b610c4d565b005b34801561041657600080fd5b50610431600480360381019061042c919061374c565b610eb5565b005b34801561043f57600080fd5b5061045a6004803603810190610455919061398f565b610f15565b604051610468929190613f6a565b60405180910390f35b34801561047d57600080fd5b5061049860048036038101906104939190613852565b610fd5565b6040516104a59190614350565b60405180910390f35b3480156104ba57600080fd5b506104c361107a565b6040516104d09190614350565b60405180910390f35b6104e1611084565b005b3480156104ef57600080fd5b5061050a6004803603810190610505919061374c565b6111af565b005b34801561051857600080fd5b50610533600480360381019061052e9190613966565b6111cf565b6040516105409190614350565b60405180910390f35b34801561055557600080fd5b50610570600480360381019061056b9190613925565b611266565b005b34801561057e57600080fd5b5061059960048036038101906105949190613966565b6112fc565b6040516105a69190614350565b60405180910390f35b3480156105bb57600080fd5b506105d660048036038101906105d19190613966565b611320565b6040516105e39190613eda565b60405180910390f35b3480156105f857600080fd5b506106016113d2565b60405161060e9190614350565b60405180910390f35b34801561062357600080fd5b5061062c6113dd565b6040516106399190613fae565b60405180910390f35b34801561064e57600080fd5b50610669600480360381019061066491906136be565b61146b565b6040516106769190614350565b60405180910390f35b34801561068b57600080fd5b50610694611523565b005b3480156106a257600080fd5b506106ab6115ab565b6040516106b89190614350565b60405180910390f35b3480156106cd57600080fd5b506106e860048036038101906106e39190613966565b6115b0565b6040516106f59190613eda565b60405180910390f35b34801561070a57600080fd5b5061072560048036038101906107209190613852565b61161e565b005b34801561073357600080fd5b5061073c6116a8565b6040516107499190613eda565b60405180910390f35b34801561075e57600080fd5b506107676116d2565b6040516107749190613fae565b60405180910390f35b34801561078957600080fd5b506107a4600480360381019061079f91906136be565b611764565b6040516107b19190614350565b60405180910390f35b6107d460048036038101906107cf9190613966565b6117ad565b005b3480156107e257600080fd5b506107fd60048036038101906107f89190613816565b611938565b005b34801561080b57600080fd5b506108266004803603810190610821919061379b565b611ab9565b005b34801561083457600080fd5b5061084f600480360381019061084a919061388e565b611b1b565b005b34801561085d57600080fd5b5061087860048036038101906108739190613966565b611bad565b6040516108859190613fae565b60405180910390f35b34801561089a57600080fd5b506108b560048036038101906108b091906136be565b611c54565b005b3480156108c357600080fd5b506108de60048036038101906108d991906136be565b611d9e565b6040516108eb9190614350565b60405180910390f35b34801561090057600080fd5b50610909611de7565b6040516109169190614350565b60405180910390f35b34801561092b57600080fd5b5061094660048036038101906109419190613710565b611df1565b6040516109539190613f93565b60405180910390f35b34801561096857600080fd5b50610983600480360381019061097e91906136be565b611e85565b005b34801561099157600080fd5b5061099a611f7d565b6040516109a79190614350565b60405180910390f35b600033905090565b60006109c382611f83565b9050919050565b6060600080546109d990614653565b80601f0160208091040260200160405190810160405280929190818152602001828054610a0590614653565b8015610a525780601f10610a2757610100808354040283529160200191610a52565b820191906000526020600020905b815481529060010190602001808311610a3557829003601f168201915b5050505050905090565b6000610a6782611ffd565b610aa6576040517f08c379a0000000000000000000000000000000000000000000000000000000008152600401610a9d90614250565b60405180910390fd5b6004600083815260200190815260200160002060009054906101000a900473ffffffffffffffffffffffffffffffffffffffff169050919050565b6000610aec82611320565b90508073ffffffffffffffffffffffffffffffffffffffff168373ffffffffffffffffffffffffffffffffffffffff161415610b5d576040517f08c379a0000000000000000000000000000000000000000000000000000000008152600401610b54906142f0565b60405180910390fd5b8073ffffffffffffffffffffffffffffffffffffffff16610b7c6109b0565b73ffffffffffffffffffffffffffffffffffffffff161480610bab5750610baa81610ba56109b0565b611df1565b5b610bea576040517f08c379a0000000000000000000000000000000000000000000000000000000008152600401610be1906141d0565b60405180910390fd5b610bf48383612069565b505050565b600047905090565b60138181548110610c1157600080fd5b906000526020600020016000915054906101000a900473ffffffffffffffffffffffffffffffffffffffff1681565b6000600880549050905090565b6000600d60008373ffffffffffffffffffffffffffffffffffffffff1673ffffffffffffffffffffffffffffffffffffffff1681526020019081526020016000205411610ccf576040517f08c379a0000000000000000000000000000000000000000000000000000000008152600401610cc6906140f0565b60405180910390fd5b6000600c5447610cdf9190614440565b90506000600e60008473ffffffffffffffffffffffffffffffffffffffff1673ffffffffffffffffffffffffffffffffffffffff16815260200190815260200160002054600b54600d60008673ffffffffffffffffffffffffffffffffffffffff1673ffffffffffffffffffffffffffffffffffffffff1681526020019081526020016000205484610d7191906144c7565b610d7b9190614496565b610d859190614521565b90506000811415610dcb576040517f08c379a0000000000000000000000000000000000000000000000000000000008152600401610dc2906141b0565b60405180910390fd5b80600e60008573ffffffffffffffffffffffffffffffffffffffff1673ffffffffffffffffffffffffffffffffffffffff16815260200190815260200160002054610e169190614440565b600e60008573ffffffffffffffffffffffffffffffffffffffff1673ffffffffffffffffffffffffffffffffffffffff1681526020019081526020016000208190555080600c54610e679190614440565b600c81905550610e778382612122565b7fdf20fd1e76bc69d672e4814fafb2c449bba3a5369d8359adf9e05e6fde87b0568382604051610ea8929190613ef5565b60405180910390a1505050565b610ec6610ec06109b0565b82612216565b610f05576040517f08c379a0000000000000000000000000000000000000000000000000000000008152600401610efc90614310565b60405180910390fd5b610f108383836122f4565b505050565b600080600060106040518060400160405290816000820160009054906101000a900473ffffffffffffffffffffffffffffffffffffffff1673ffffffffffffffffffffffffffffffffffffffff1673ffffffffffffffffffffffffffffffffffffffff1681526020016000820160149054906101000a900462ffffff1662ffffff1662ffffff1681525050905080600001519250612710816020015162ffffff1685610fc191906144c7565b610fcb9190614496565b9150509250929050565b6000610fe08361146b565b8210611021576040517f08c379a000000000000000000000000000000000000000000000000000000000815260040161101890614030565b60405180910390fd5b600660008473ffffffffffffffffffffffffffffffffffffffff1673ffffffffffffffffffffffffffffffffffffffff168152602001908152602001600020600083815260200190815260200160002054905092915050565b6000600b54905090565b61108c6109b0565b73ffffffffffffffffffffffffffffffffffffffff166110aa6116a8565b73ffffffffffffffffffffffffffffffffffffffff1614611100576040517f08c379a00000000000000000000000000000000000000000000000000000000081526004016110f790614270565b60405180910390fd5b60003373ffffffffffffffffffffffffffffffffffffffff164760405161112690613ec5565b60006040518083038185875af1925050503d8060008114611163576040519150601f19603f3d011682016040523d82523d6000602084013e611168565b606091505b50509050806111ac576040517f08c379a00000000000000000000000000000000000000000000000000000000081526004016111a3906140b0565b60405180910390fd5b50565b6111ca83838360405180602001604052806000815250611ab9565b505050565b60006111d9610c40565b821061121a576040517f08c379a000000000000000000000000000000000000000000000000000000000815260040161121190614330565b60405180910390fd5b60088281548110611254577f4e487b7100000000000000000000000000000000000000000000000000000000600052603260045260246000fd5b90600052602060002001549050919050565b61126e6109b0565b73ffffffffffffffffffffffffffffffffffffffff1661128c6116a8565b73ffffffffffffffffffffffffffffffffffffffff16146112e2576040517f08c379a00000000000000000000000000000000000000000000000000000000081526004016112d990614270565b60405180910390fd5b80601290805190602001906112f89291906133e3565b5050565b6014818154811061130c57600080fd5b906000526020600020016000915090505481565b6000806002600084815260200190815260200160002060009054906101000a900473ffffffffffffffffffffffffffffffffffffffff169050600073ffffffffffffffffffffffffffffffffffffffff168173ffffffffffffffffffffffffffffffffffffffff1614156113c9576040517f08c379a00000000000000000000000000000000000000000000000000000000081526004016113c090614210565b60405180910390fd5b80915050919050565b666a94d74f43000081565b601280546113ea90614653565b80601f016020809104026020016040519081016040528092919081815260200182805461141690614653565b80156114635780601f1061143857610100808354040283529160200191611463565b820191906000526020600020905b81548152906001019060200180831161144657829003601f168201915b505050505081565b60008073ffffffffffffffffffffffffffffffffffffffff168273ffffffffffffffffffffffffffffffffffffffff1614156114dc576040517f08c379a00000000000000000000000000000000000000000000000000000000081526004016114d3906141f0565b60405180910390fd5b600360008373ffffffffffffffffffffffffffffffffffffffff1673ffffffffffffffffffffffffffffffffffffffff168152602001908152602001600020549050919050565b61152b6109b0565b73ffffffffffffffffffffffffffffffffffffffff166115496116a8565b73ffffffffffffffffffffffffffffffffffffffff161461159f576040517f08c379a000000000000000000000000000000000000000000000000000000000815260040161159690614270565b60405180910390fd5b6115a96000612550565b565b600281565b6000600f82815481106115ec577f4e487b7100000000000000000000000000000000000000000000000000000000600052603260045260246000fd5b9060005260206000200160009054906101000a900473ffffffffffffffffffffffffffffffffffffffff169050919050565b6116266109b0565b73ffffffffffffffffffffffffffffffffffffffff166116446116a8565b73ffffffffffffffffffffffffffffffffffffffff161461169a576040517f08c379a000000000000000000000000000000000000000000000000000000000815260040161169190614270565b60405180910390fd5b6116a48282612616565b5050565b6000600a60009054906101000a900473ffffffffffffffffffffffffffffffffffffffff16905090565b6060600180546116e190614653565b80601f016020809104026020016040519081016040528092919081815260200182805461170d90614653565b801561175a5780601f1061172f5761010080835404028352916020019161175a565b820191906000526020600020905b81548152906001019060200180831161173d57829003601f168201915b5050505050905090565b6000600e60008373ffffffffffffffffffffffffffffffffffffffff1673ffffffffffffffffffffffffffffffffffffffff168152602001908152602001600020549050919050565b60008114156117f1576040517f08c379a00000000000000000000000000000000000000000000000000000000081526004016117e890614290565b60405180910390fd5b60026117fc3361146b565b826118079190614440565b1115611848576040517f08c379a000000000000000000000000000000000000000000000000000000000815260040161183f90613fd0565b60405180910390fd5b60115481611854610c40565b61185e9190614440565b111561189f576040517f08c379a0000000000000000000000000000000000000000000000000000000008152600401611896906142b0565b60405180910390fd5b3481666a94d74f4300006118b391906144c7565b11156118f4576040517f08c379a00000000000000000000000000000000000000000000000000000000081526004016118eb906140d0565b60405180910390fd5b60005b81811015611934576000611909610c40565b90506011548110156119205761191f3382612700565b5b50808061192c906146b6565b9150506118f7565b5050565b6119406109b0565b73ffffffffffffffffffffffffffffffffffffffff168273ffffffffffffffffffffffffffffffffffffffff1614156119ae576040517f08c379a00000000000000000000000000000000000000000000000000000000081526004016119a590614130565b60405180910390fd5b80600560006119bb6109b0565b73ffffffffffffffffffffffffffffffffffffffff1673ffffffffffffffffffffffffffffffffffffffff16815260200190815260200160002060008473ffffffffffffffffffffffffffffffffffffffff1673ffffffffffffffffffffffffffffffffffffffff16815260200190815260200160002060006101000a81548160ff0219169083151502179055508173ffffffffffffffffffffffffffffffffffffffff16611a686109b0565b73ffffffffffffffffffffffffffffffffffffffff167f17307eab39ab6107e8899845ad3d59bd9653f200f220920489ca2b5937696c3183604051611aad9190613f93565b60405180910390a35050565b611aca611ac46109b0565b83612216565b611b09576040517f08c379a0000000000000000000000000000000000000000000000000000000008152600401611b0090614310565b60405180910390fd5b611b158484848461271e565b50505050565b611b236109b0565b73ffffffffffffffffffffffffffffffffffffffff16611b416116a8565b73ffffffffffffffffffffffffffffffffffffffff1614611b97576040517f08c379a0000000000000000000000000000000000000000000000000000000008152600401611b8e90614270565b60405180910390fd5b818160139190611ba8929190613469565b505050565b6060611bb882611ffd565b611bf7576040517f08c379a0000000000000000000000000000000000000000000000000000000008152600401611bee90613ff0565b60405180910390fd5b6000611c0161277a565b90506000815111611c215760405180602001604052806000815250611c4c565b80611c2b8461280c565b604051602001611c3c929190613ea1565b6040516020818303038152906040525b915050919050565b6000805b601380549050811015611d155760138181548110611c9f577f4e487b7100000000000000000000000000000000000000000000000000000000600052603260045260246000fd5b9060005260206000200160009054906101000a900473ffffffffffffffffffffffffffffffffffffffff1673ffffffffffffffffffffffffffffffffffffffff163373ffffffffffffffffffffffffffffffffffffffff161415611d0257600191505b8080611d0d906146b6565b915050611c58565b5080611d2057600080fd5b6011546001611d2d610c40565b611d379190614440565b1115611d78576040517f08c379a0000000000000000000000000000000000000000000000000000000008152600401611d6f906142b0565b60405180910390fd5b6000611d82610c40565b9050601154811015611d9957611d988382612700565b5b505050565b6000600d60008373ffffffffffffffffffffffffffffffffffffffff1673ffffffffffffffffffffffffffffffffffffffff168152602001908152602001600020549050919050565b6000600c54905090565b6000600560008473ffffffffffffffffffffffffffffffffffffffff1673ffffffffffffffffffffffffffffffffffffffff16815260200190815260200160002060008373ffffffffffffffffffffffffffffffffffffffff1673ffffffffffffffffffffffffffffffffffffffff16815260200190815260200160002060009054906101000a900460ff16905092915050565b611e8d6109b0565b73ffffffffffffffffffffffffffffffffffffffff16611eab6116a8565b73ffffffffffffffffffffffffffffffffffffffff1614611f01576040517f08c379a0000000000000000000000000000000000000000000000000000000008152600401611ef890614270565b60405180910390fd5b600073ffffffffffffffffffffffffffffffffffffffff168173ffffffffffffffffffffffffffffffffffffffff161415611f71576040517f08c379a0000000000000000000000000000000000000000000000000000000008152600401611f6890614070565b60405180910390fd5b611f7a81612550565b50565b60115481565b60007f2a55205a000000000000000000000000000000000000000000000000000000007bffffffffffffffffffffffffffffffffffffffffffffffffffffffff1916827bffffffffffffffffffffffffffffffffffffffffffffffffffffffff19161480611ff65750611ff5826129b9565b5b9050919050565b60008073ffffffffffffffffffffffffffffffffffffffff166002600084815260200190815260200160002060009054906101000a900473ffffffffffffffffffffffffffffffffffffffff1673ffffffffffffffffffffffffffffffffffffffff1614159050919050565b816004600083815260200190815260200160002060006101000a81548173ffffffffffffffffffffffffffffffffffffffff021916908373ffffffffffffffffffffffffffffffffffffffff160217905550808273ffffffffffffffffffffffffffffffffffffffff166120dc83611320565b73ffffffffffffffffffffffffffffffffffffffff167f8c5be1e5ebec7d5bd14f71427d1e84f3dd0314c0f7b2291e5b200ac8c7c3b92560405160405180910390a45050565b80471015612165576040517f08c379a000000000000000000000000000000000000000000000000000000000815260040161215c90614170565b60405180910390fd5b60008273ffffffffffffffffffffffffffffffffffffffff168260405161218b90613ec5565b60006040518083038185875af1925050503d80600081146121c8576040519150601f19603f3d011682016040523d82523d6000602084013e6121cd565b606091505b5050905080612211576040517f08c379a000000000000000000000000000000000000000000000000000000000815260040161220890614150565b60405180910390fd5b505050565b600061222182611ffd565b612260576040517f08c379a000000000000000000000000000000000000000000000000000000000815260040161225790614190565b60405180910390fd5b600061226b83611320565b90508073ffffffffffffffffffffffffffffffffffffffff168473ffffffffffffffffffffffffffffffffffffffff1614806122da57508373ffffffffffffffffffffffffffffffffffffffff166122c284610a5c565b73ffffffffffffffffffffffffffffffffffffffff16145b806122eb57506122ea8185611df1565b5b91505092915050565b8273ffffffffffffffffffffffffffffffffffffffff1661231482611320565b73ffffffffffffffffffffffffffffffffffffffff161461236a576040517f08c379a0000000000000000000000000000000000000000000000000000000008152600401612361906142d0565b60405180910390fd5b600073ffffffffffffffffffffffffffffffffffffffff168273ffffffffffffffffffffffffffffffffffffffff1614156123da576040517f08c379a00000000000000000000000000000000000000000000000000000000081526004016123d190614110565b60405180910390fd5b6123e5838383612a33565b6123f0600082612069565b6001600360008573ffffffffffffffffffffffffffffffffffffffff1673ffffffffffffffffffffffffffffffffffffffff16815260200190815260200160002060008282546124409190614521565b925050819055506001600360008473ffffffffffffffffffffffffffffffffffffffff1673ffffffffffffffffffffffffffffffffffffffff16815260200190815260200160002060008282546124979190614440565b92505081905550816002600083815260200190815260200160002060006101000a81548173ffffffffffffffffffffffffffffffffffffffff021916908373ffffffffffffffffffffffffffffffffffffffff160217905550808273ffffffffffffffffffffffffffffffffffffffff168473ffffffffffffffffffffffffffffffffffffffff167fddf252ad1be2c89b69c2b068fc378daa952ba7f163c4a11628f55a4df523b3ef60405160405180910390a4505050565b6000600a60009054906101000a900473ffffffffffffffffffffffffffffffffffffffff16905081600a60006101000a81548173ffffffffffffffffffffffffffffffffffffffff021916908373ffffffffffffffffffffffffffffffffffffffff1602179055508173ffffffffffffffffffffffffffffffffffffffff168173ffffffffffffffffffffffffffffffffffffffff167f8be0079c531659141344cd1fd0a4f28419497f9722a3daafe3b4186f6b6457e060405160405180910390a35050565b61271081111561265b576040517f08c379a000000000000000000000000000000000000000000000000000000000815260040161265290614010565b60405180910390fd5b60405180604001604052808373ffffffffffffffffffffffffffffffffffffffff1681526020018262ffffff16815250601060008201518160000160006101000a81548173ffffffffffffffffffffffffffffffffffffffff021916908373ffffffffffffffffffffffffffffffffffffffff16021790555060208201518160000160146101000a81548162ffffff021916908362ffffff1602179055509050505050565b61271a828260405180602001604052806000815250612b47565b5050565b6127298484846122f4565b61273584848484612ba2565b612774576040517f08c379a000000000000000000000000000000000000000000000000000000000815260040161276b90614050565b60405180910390fd5b50505050565b60606012805461278990614653565b80601f01602080910402602001604051908101604052809291908181526020018280546127b590614653565b80156128025780601f106127d757610100808354040283529160200191612802565b820191906000526020600020905b8154815290600101906020018083116127e557829003601f168201915b5050505050905090565b60606000821415612854576040518060400160405280600181526020017f300000000000000000000000000000000000000000000000000000000000000081525090506129b4565b600082905060005b6000821461288657808061286f906146b6565b915050600a8261287f9190614496565b915061285c565b60008167ffffffffffffffff8111156128c8577f4e487b7100000000000000000000000000000000000000000000000000000000600052604160045260246000fd5b6040519080825280601f01601f1916602001820160405280156128fa5781602001600182028036833780820191505090505b5090505b600085146129ad576001826129139190614521565b9150600a8561292291906146ff565b603061292e9190614440565b60f81b81838151811061296a577f4e487b7100000000000000000000000000000000000000000000000000000000600052603260045260246000fd5b60200101907effffffffffffffffffffffffffffffffffffffffffffffffffffffffffffff1916908160001a905350600a856129a69190614496565b94506128fe565b8093505050505b919050565b60007f780e9d63000000000000000000000000000000000000000000000000000000007bffffffffffffffffffffffffffffffffffffffffffffffffffffffff1916827bffffffffffffffffffffffffffffffffffffffffffffffffffffffff19161480612a2c5750612a2b82612d39565b5b9050919050565b612a3e838383612e1b565b600073ffffffffffffffffffffffffffffffffffffffff168373ffffffffffffffffffffffffffffffffffffffff161415612a8157612a7c81612e20565b612ac0565b8173ffffffffffffffffffffffffffffffffffffffff168373ffffffffffffffffffffffffffffffffffffffff1614612abf57612abe8382612e69565b5b5b600073ffffffffffffffffffffffffffffffffffffffff168273ffffffffffffffffffffffffffffffffffffffff161415612b0357612afe81612fd6565b612b42565b8273ffffffffffffffffffffffffffffffffffffffff168273ffffffffffffffffffffffffffffffffffffffff1614612b4157612b408282613119565b5b5b505050565b612b518383613198565b612b5e6000848484612ba2565b612b9d576040517f08c379a0000000000000000000000000000000000000000000000000000000008152600401612b9490614050565b60405180910390fd5b505050565b6000612bc38473ffffffffffffffffffffffffffffffffffffffff16613366565b15612d2c578373ffffffffffffffffffffffffffffffffffffffff1663150b7a02612bec6109b0565b8786866040518563ffffffff1660e01b8152600401612c0e9493929190613f1e565b602060405180830381600087803b158015612c2857600080fd5b505af1925050508015612c5957506040513d601f19601f82011682018060405250810190612c5691906138fc565b60015b612cdc573d8060008114612c89576040519150601f19603f3d011682016040523d82523d6000602084013e612c8e565b606091505b50600081511415612cd4576040517f08c379a0000000000000000000000000000000000000000000000000000000008152600401612ccb90614050565b60405180910390fd5b805181602001fd5b63150b7a0260e01b7bffffffffffffffffffffffffffffffffffffffffffffffffffffffff1916817bffffffffffffffffffffffffffffffffffffffffffffffffffffffff191614915050612d31565b600190505b949350505050565b60007f80ac58cd000000000000000000000000000000000000000000000000000000007bffffffffffffffffffffffffffffffffffffffffffffffffffffffff1916827bffffffffffffffffffffffffffffffffffffffffffffffffffffffff19161480612e0457507f5b5e139f000000000000000000000000000000000000000000000000000000007bffffffffffffffffffffffffffffffffffffffffffffffffffffffff1916827bffffffffffffffffffffffffffffffffffffffffffffffffffffffff1916145b80612e145750612e1382613379565b5b9050919050565b505050565b6008805490506009600083815260200190815260200160002081905550600881908060018154018082558091505060019003906000526020600020016000909190919091505550565b60006001612e768461146b565b612e809190614521565b9050600060076000848152602001908152602001600020549050818114612f65576000600660008673ffffffffffffffffffffffffffffffffffffffff1673ffffffffffffffffffffffffffffffffffffffff168152602001908152602001600020600084815260200190815260200160002054905080600660008773ffffffffffffffffffffffffffffffffffffffff1673ffffffffffffffffffffffffffffffffffffffff168152602001908152602001600020600084815260200190815260200160002081905550816007600083815260200190815260200160002081905550505b6007600084815260200190815260200160002060009055600660008573ffffffffffffffffffffffffffffffffffffffff1673ffffffffffffffffffffffffffffffffffffffff16815260200190815260200160002060008381526020019081526020016000206000905550505050565b60006001600880549050612fea9190614521565b9050600060096000848152602001908152602001600020549050600060088381548110613040577f4e487b7100000000000000000000000000000000000000000000000000000000600052603260045260246000fd5b906000526020600020015490508060088381548110613088577f4e487b7100000000000000000000000000000000000000000000000000000000600052603260045260246000fd5b9060005260206000200181905550816009600083815260200190815260200160002081905550600960008581526020019081526020016000206000905560088054806130fd577f4e487b7100000000000000000000000000000000000000000000000000000000600052603160045260246000fd5b6001900381819060005260206000200160009055905550505050565b60006131248361146b565b905081600660008573ffffffffffffffffffffffffffffffffffffffff1673ffffffffffffffffffffffffffffffffffffffff168152602001908152602001600020600083815260200190815260200160002081905550806007600084815260200190815260200160002081905550505050565b600073ffffffffffffffffffffffffffffffffffffffff168273ffffffffffffffffffffffffffffffffffffffff161415613208576040517f08c379a00000000000000000000000000000000000000000000000000000000081526004016131ff90614230565b60405180910390fd5b61321181611ffd565b15613251576040517f08c379a000000000000000000000000000000000000000000000000000000000815260040161324890614090565b60405180910390fd5b61325d60008383612a33565b6001600360008473ffffffffffffffffffffffffffffffffffffffff1673ffffffffffffffffffffffffffffffffffffffff16815260200190815260200160002060008282546132ad9190614440565b92505081905550816002600083815260200190815260200160002060006101000a81548173ffffffffffffffffffffffffffffffffffffffff021916908373ffffffffffffffffffffffffffffffffffffffff160217905550808273ffffffffffffffffffffffffffffffffffffffff16600073ffffffffffffffffffffffffffffffffffffffff167fddf252ad1be2c89b69c2b068fc378daa952ba7f163c4a11628f55a4df523b3ef60405160405180910390a45050565b600080823b905060008111915050919050565b60007f01ffc9a7000000000000000000000000000000000000000000000000000000007bffffffffffffffffffffffffffffffffffffffffffffffffffffffff1916827bffffffffffffffffffffffffffffffffffffffffffffffffffffffff1916149050919050565b8280546133ef90614653565b90600052602060002090601f0160209004810192826134115760008555613458565b82601f1061342a57805160ff1916838001178555613458565b82800160010185558215613458579182015b8281111561345757825182559160200191906001019061343c565b5b5090506134659190613509565b5090565b8280548282559060005260206000209081019282156134f8579160200282015b828111156134f757823573ffffffffffffffffffffffffffffffffffffffff168260006101000a81548173ffffffffffffffffffffffffffffffffffffffff021916908373ffffffffffffffffffffffffffffffffffffffff16021790555091602001919060010190613489565b5b5090506135059190613509565b5090565b5b8082111561352257600081600090555060010161350a565b5090565b600061353961353484614390565b61436b565b90508281526020810184848401111561355157600080fd5b61355c848285614611565b509392505050565b6000613577613572846143c1565b61436b565b90508281526020810184848401111561358f57600080fd5b61359a848285614611565b509392505050565b6000813590506135b181614f74565b92915050565b6000813590506135c681614f8b565b92915050565b60008083601f8401126135de57600080fd5b8235905067ffffffffffffffff8111156135f757600080fd5b60208301915083602082028301111561360f57600080fd5b9250929050565b60008135905061362581614fa2565b92915050565b60008135905061363a81614fb9565b92915050565b60008151905061364f81614fb9565b92915050565b600082601f83011261366657600080fd5b8135613676848260208601613526565b91505092915050565b600082601f83011261369057600080fd5b81356136a0848260208601613564565b91505092915050565b6000813590506136b881614fd0565b92915050565b6000602082840312156136d057600080fd5b60006136de848285016135a2565b91505092915050565b6000602082840312156136f957600080fd5b6000613707848285016135b7565b91505092915050565b6000806040838503121561372357600080fd5b6000613731858286016135a2565b9250506020613742858286016135a2565b9150509250929050565b60008060006060848603121561376157600080fd5b600061376f868287016135a2565b9350506020613780868287016135a2565b9250506040613791868287016136a9565b9150509250925092565b600080600080608085870312156137b157600080fd5b60006137bf878288016135a2565b94505060206137d0878288016135a2565b93505060406137e1878288016136a9565b925050606085013567ffffffffffffffff8111156137fe57600080fd5b61380a87828801613655565b91505092959194509250565b6000806040838503121561382957600080fd5b6000613837858286016135a2565b925050602061384885828601613616565b9150509250929050565b6000806040838503121561386557600080fd5b6000613873858286016135a2565b9250506020613884858286016136a9565b9150509250929050565b600080602083850312156138a157600080fd5b600083013567ffffffffffffffff8111156138bb57600080fd5b6138c7858286016135cc565b92509250509250929050565b6000602082840312156138e557600080fd5b60006138f38482850161362b565b91505092915050565b60006020828403121561390e57600080fd5b600061391c84828501613640565b91505092915050565b60006020828403121561393757600080fd5b600082013567ffffffffffffffff81111561395157600080fd5b61395d8482850161367f565b91505092915050565b60006020828403121561397857600080fd5b6000613986848285016136a9565b91505092915050565b600080604083850312156139a257600080fd5b60006139b0858286016136a9565b92505060206139c1858286016136a9565b9150509250929050565b6139d4816145db565b82525050565b6139e381614555565b82525050565b6139f281614579565b82525050565b6000613a03826143f2565b613a0d8185614408565b9350613a1d818560208601614620565b613a26816147ec565b840191505092915050565b6000613a3c826143fd565b613a468185614424565b9350613a56818560208601614620565b613a5f816147ec565b840191505092915050565b6000613a75826143fd565b613a7f8185614435565b9350613a8f818560208601614620565b80840191505092915050565b6000613aa8603083614424565b9150613ab3826147fd565b604082019050919050565b6000613acb602183614424565b9150613ad68261484c565b604082019050919050565b6000613aee601a83614424565b9150613af98261489b565b602082019050919050565b6000613b11602b83614424565b9150613b1c826148c4565b604082019050919050565b6000613b34603283614424565b9150613b3f82614913565b604082019050919050565b6000613b57602683614424565b9150613b6282614962565b604082019050919050565b6000613b7a601c83614424565b9150613b85826149b1565b602082019050919050565b6000613b9d600f83614424565b9150613ba8826149da565b602082019050919050565b6000613bc0602083614424565b9150613bcb82614a03565b602082019050919050565b6000613be3602683614424565b9150613bee82614a2c565b604082019050919050565b6000613c06602483614424565b9150613c1182614a7b565b604082019050919050565b6000613c29601983614424565b9150613c3482614aca565b602082019050919050565b6000613c4c603a83614424565b9150613c5782614af3565b604082019050919050565b6000613c6f601d83614424565b9150613c7a82614b42565b602082019050919050565b6000613c92602c83614424565b9150613c9d82614b6b565b604082019050919050565b6000613cb5602b83614424565b9150613cc082614bba565b604082019050919050565b6000613cd8603883614424565b9150613ce382614c09565b604082019050919050565b6000613cfb602a83614424565b9150613d0682614c58565b604082019050919050565b6000613d1e602983614424565b9150613d2982614ca7565b604082019050919050565b6000613d41602083614424565b9150613d4c82614cf6565b602082019050919050565b6000613d64602c83614424565b9150613d6f82614d1f565b604082019050919050565b6000613d87602083614424565b9150613d9282614d6e565b602082019050919050565b6000613daa602d83614424565b9150613db582614d97565b604082019050919050565b6000613dcd602d83614424565b9150613dd882614de6565b604082019050919050565b6000613df0602983614424565b9150613dfb82614e35565b604082019050919050565b6000613e13602183614424565b9150613e1e82614e84565b604082019050919050565b6000613e36600083614419565b9150613e4182614ed3565b600082019050919050565b6000613e59603183614424565b9150613e6482614ed6565b604082019050919050565b6000613e7c602c83614424565b9150613e8782614f25565b604082019050919050565b613e9b816145d1565b82525050565b6000613ead8285613a6a565b9150613eb98284613a6a565b91508190509392505050565b6000613ed082613e29565b9150819050919050565b6000602082019050613eef60008301846139da565b92915050565b6000604082019050613f0a60008301856139cb565b613f176020830184613e92565b9392505050565b6000608082019050613f3360008301876139da565b613f4060208301866139da565b613f4d6040830185613e92565b8181036060830152613f5f81846139f8565b905095945050505050565b6000604082019050613f7f60008301856139da565b613f8c6020830184613e92565b9392505050565b6000602082019050613fa860008301846139e9565b92915050565b60006020820190508181036000830152613fc88184613a31565b905092915050565b60006020820190508181036000830152613fe981613a9b565b9050919050565b6000602082019050818103600083015261400981613abe565b9050919050565b6000602082019050818103600083015261402981613ae1565b9050919050565b6000602082019050818103600083015261404981613b04565b9050919050565b6000602082019050818103600083015261406981613b27565b9050919050565b6000602082019050818103600083015261408981613b4a565b9050919050565b600060208201905081810360008301526140a981613b6d565b9050919050565b600060208201905081810360008301526140c981613b90565b9050919050565b600060208201905081810360008301526140e981613bb3565b9050919050565b6000602082019050818103600083015261410981613bd6565b9050919050565b6000602082019050818103600083015261412981613bf9565b9050919050565b6000602082019050818103600083015261414981613c1c565b9050919050565b6000602082019050818103600083015261416981613c3f565b9050919050565b6000602082019050818103600083015261418981613c62565b9050919050565b600060208201905081810360008301526141a981613c85565b9050919050565b600060208201905081810360008301526141c981613ca8565b9050919050565b600060208201905081810360008301526141e981613ccb565b9050919050565b6000602082019050818103600083015261420981613cee565b9050919050565b6000602082019050818103600083015261422981613d11565b9050919050565b6000602082019050818103600083015261424981613d34565b9050919050565b6000602082019050818103600083015261426981613d57565b9050919050565b6000602082019050818103600083015261428981613d7a565b9050919050565b600060208201905081810360008301526142a981613d9d565b9050919050565b600060208201905081810360008301526142c981613dc0565b9050919050565b600060208201905081810360008301526142e981613de3565b9050919050565b6000602082019050818103600083015261430981613e06565b9050919050565b6000602082019050818103600083015261432981613e4c565b9050919050565b6000602082019050818103600083015261434981613e6f565b9050919050565b60006020820190506143656000830184613e92565b92915050565b6000614375614386565b90506143818282614685565b919050565b6000604051905090565b600067ffffffffffffffff8211156143ab576143aa6147bd565b5b6143b4826147ec565b9050602081019050919050565b600067ffffffffffffffff8211156143dc576143db6147bd565b5b6143e5826147ec565b9050602081019050919050565b600081519050919050565b600081519050919050565b600082825260208201905092915050565b600081905092915050565b600082825260208201905092915050565b600081905092915050565b600061444b826145d1565b9150614456836145d1565b9250827fffffffffffffffffffffffffffffffffffffffffffffffffffffffffffffffff0382111561448b5761448a614730565b5b828201905092915050565b60006144a1826145d1565b91506144ac836145d1565b9250826144bc576144bb61475f565b5b828204905092915050565b60006144d2826145d1565b91506144dd836145d1565b9250817fffffffffffffffffffffffffffffffffffffffffffffffffffffffffffffffff048311821515161561451657614515614730565b5b828202905092915050565b600061452c826145d1565b9150614537836145d1565b92508282101561454a57614549614730565b5b828203905092915050565b6000614560826145b1565b9050919050565b6000614572826145b1565b9050919050565b60008115159050919050565b60007fffffffff0000000000000000000000000000000000000000000000000000000082169050919050565b600073ffffffffffffffffffffffffffffffffffffffff82169050919050565b6000819050919050565b60006145e6826145ed565b9050919050565b60006145f8826145ff565b9050919050565b600061460a826145b1565b9050919050565b82818337600083830152505050565b60005b8381101561463e578082015181840152602081019050614623565b8381111561464d576000848401525b50505050565b6000600282049050600182168061466b57607f821691505b6020821081141561467f5761467e61478e565b5b50919050565b61468e826147ec565b810181811067ffffffffffffffff821117156146ad576146ac6147bd565b5b80604052505050565b60006146c1826145d1565b91507fffffffffffffffffffffffffffffffffffffffffffffffffffffffffffffffff8214156146f4576146f3614730565b5b600182019050919050565b600061470a826145d1565b9150614715836145d1565b9250826147255761472461475f565b5b828206905092915050565b7f4e487b7100000000000000000000000000000000000000000000000000000000600052601160045260246000fd5b7f4e487b7100000000000000000000000000000000000000000000000000000000600052601260045260246000fd5b7f4e487b7100000000000000000000000000000000000000000000000000000000600052602260045260246000fd5b7f4e487b7100000000000000000000000000000000000000000000000000000000600052604160045260246000fd5b6000601f19601f8301169050919050565b7f6d696e74416d6f756e743a20796f7520747269656420746f206d696e74206d6f60008201527f7265207468616e204d6178206d696e7400000000000000000000000000000000602082015250565b7f4552433732314d657461646174613a204e6f6e6578697374656e7420746f6b6560008201527f6e00000000000000000000000000000000000000000000000000000000000000602082015250565b7f45524332393831526f79616c746965733a20546f6f2068696768000000000000600082015250565b7f455243373231456e756d657261626c653a206f776e657220696e646578206f7560008201527f74206f6620626f756e6473000000000000000000000000000000000000000000602082015250565b7f4552433732313a207472616e7366657220746f206e6f6e20455243373231526560008201527f63656976657220696d706c656d656e7465720000000000000000000000000000602082015250565b7f4f776e61626c653a206e6577206f776e657220697320746865207a65726f206160008201527f6464726573730000000000000000000000000000000000000000000000000000602082015250565b7f4552433732313a20746f6b656e20616c7265616479206d696e74656400000000600082015250565b7f5769746864726177206661696c65640000000000000000000000000000000000600082015250565b7f6d696e7450726963653a204e6f7420656e6f7567682045746865722073656e74600082015250565b7f5061796d656e7453706c69747465723a206163636f756e7420686173206e6f2060008201527f7368617265730000000000000000000000000000000000000000000000000000602082015250565b7f4552433732313a207472616e7366657220746f20746865207a65726f2061646460008201527f7265737300000000000000000000000000000000000000000000000000000000602082015250565b7f4552433732313a20617070726f766520746f2063616c6c657200000000000000600082015250565b7f416464726573733a20756e61626c6520746f2073656e642076616c75652c207260008201527f6563697069656e74206d61792068617665207265766572746564000000000000602082015250565b7f416464726573733a20696e73756666696369656e742062616c616e6365000000600082015250565b7f4552433732313a206f70657261746f7220717565727920666f72206e6f6e657860008201527f697374656e7420746f6b656e0000000000000000000000000000000000000000602082015250565b7f5061796d656e7453706c69747465723a206163636f756e74206973206e6f742060008201527f647565207061796d656e74000000000000000000000000000000000000000000602082015250565b7f4552433732313a20617070726f76652063616c6c6572206973206e6f74206f7760008201527f6e6572206e6f7220617070726f76656420666f7220616c6c0000000000000000602082015250565b7f4552433732313a2062616c616e636520717565727920666f7220746865207a6560008201527f726f206164647265737300000000000000000000000000000000000000000000602082015250565b7f4552433732313a206f776e657220717565727920666f72206e6f6e657869737460008201527f656e7420746f6b656e0000000000000000000000000000000000000000000000602082015250565b7f4552433732313a206d696e7420746f20746865207a65726f2061646472657373600082015250565b7f4552433732313a20617070726f76656420717565727920666f72206e6f6e657860008201527f697374656e7420746f6b656e0000000000000000000000000000000000000000602082015250565b7f4f776e61626c653a2063616c6c6572206973206e6f7420746865206f776e6572600082015250565b7f6d696e74416d6f756e743a20596f75206e65656420746f206d696e742061742060008201527f6c65617374203120746f6b656e00000000000000000000000000000000000000602082015250565b7f746f74616c537570706c793a204d696e74696e6720776f756c6420657863656560008201527f64206d61782e20737570706c7900000000000000000000000000000000000000602082015250565b7f4552433732313a207472616e73666572206f6620746f6b656e2074686174206960008201527f73206e6f74206f776e0000000000000000000000000000000000000000000000602082015250565b7f4552433732313a20617070726f76616c20746f2063757272656e74206f776e6560008201527f7200000000000000000000000000000000000000000000000000000000000000602082015250565b50565b7f4552433732313a207472616e736665722063616c6c6572206973206e6f74206f60008201527f776e6572206e6f7220617070726f766564000000000000000000000000000000602082015250565b7f455243373231456e756d657261626c653a20676c6f62616c20696e646578206f60008201527f7574206f6620626f756e64730000000000000000000000000000000000000000602082015250565b614f7d81614555565b8114614f8857600080fd5b50565b614f9481614567565b8114614f9f57600080fd5b50565b614fab81614579565b8114614fb657600080fd5b50565b614fc281614585565b8114614fcd57600080fd5b50565b614fd9816145d1565b8114614fe457600080fd5b5056fea264697066735822122057627f35c165b6e7ca2f35af2bdf52b5e0e797fffac6d27e81b05294de5b0aeb64736f6c63430008040033687474703a2f2f6563322d33342d3232362d3139302d31342e636f6d707574652d312e616d617a6f6e6177732e636f6d3a353030302f6d6f6e6b652f",
    "linkReferences": {},
    "deployedLinkReferences": {}
}